:100D24004C3D253264722F7300523D253264722F7C
:020D340073004A
:100B8E00C18AC10982400005824400058209000124
:100B9E00824E0001824A000082350000823300003E
:100BAE00823C0000823E000082420000824600002D
:030BBE008139007A
:060D3600C2918F80D2A5DE
:080D3C007F027EEFDEFEDFFC0A
:010D4400228C
:0A0D4500C290120D36C2A5020D3C4B
:0A0D4F00D290120D36C2A5020D3C31
:100C3C00AE07EEFB7A0064017004ED148009EB64DE
:0E0C4C00024A7009ED243F4480FF120D45223C
:100016007F38120D457F0C120D457F06120D457F68
:0400260001020D4581
:0A0BEE007850EBF208EAF208E9F291
:100BF800120C3CE4FD7850E2FB08E2FA08E2F98DB9
:100C08008275830012074DFF6006120D4F0D80E5B7
:010C180022B9
:040C19007FC87E0012
:100C1D00E4FDFCC3ED9FEC9E501400750D02750EA6
:0E0C2D00C7D50EFDD50DFA0DBD00010C80E5FA
:010C3B002296
:100B5600E4F582F5837840E2FA08E2FB7844E2F5B0
:100B66008308E2F582E47840F208F27844F208F26B
:100B7600120C1DAF037840EAF208EFF2AE83AF82A3
:070B86007844EEF208EFF2E3
:010B8D002245
:100B16007800EFF2C20964037013C2A2C2A37D0675
:100B2600FC7F03120A367F267E02120C1D7800E235
:100B360064047013C2A4C2A37D06FC7F04120A36A5
:100B46007F267E02120C1DD2A4D2A3D2A2D20922E3
:100C5A00C209C2A2C2A37D087C007F03120A367FA2
:0D0C6A00B07E04120C1DD2A2D2A3D209222A
:0A0A2C00D2A2D2A37C007D057F0159
:100A36007860ECF208EDF2785FEFF2640170170867
:100A4600E2FC08E2FD7F011206B37860E2FC08E2F0
:100A5600FDE4FF1206B3785FE26402701508E2FE59
:100A660008E2FFC3E49FFDE49EFC7F011206B31279
:100A760006A3785FE26403701E08E2FE08E2FFC385
:100A8600E49FFDE49EFC7F011206B37860E2FC0859
:100A9600E2FDE4FF1206B3785FE26404700E08E23A
:0D0AA600FC08E2FD7F011206B31206A32238
:1006A3007860E2FE08E2FFC3E49FFDE49EFCE4FF02
:1006B300AB05AA04A907E964017048D3EB9400EAE7
:1006C30064809480400A782BEAF208EBF2E4800914
:1006D300EB4A700B782BF208F208F208F28024C37D
:1006E300EA64809480501CE4782BF208F27CFF7D4E
:1006F300FFAF03AE0212077AAA06AB07782DEAF220
:1007030008EBF2E97043D3EB9400EA6480948040F1
:100713000A782FEAF208EBF2E48009EB4A700A78D0
:100723002FF208F208F208F222C3EA6480948050A0
:1007330018E4782FF208F27CFF7DFFAF03AE0212BC
:0A074300077A7831EEF208EFF22297
:1007F6007849E22401F218E23400F2782BE2FE088E
:10080600E2FF7848E2FC08E2FDC39FEC9E5004D26A
:10081600928009C3ED9FEC9E4002C292782DE2FEC3
:1008260008E2FFC3ED9FEC9E5004D293800CC37880
:1008360049E29F18E29E4002C293782FE2FE08E248
:10084600FF7848E2FC08E2FDC39FEC9E5004D29478
:100856008009C3ED9FEC9E4002C2947831E2FE0807
:10086600E2FFC3ED9FEC9E5004D295800CC37849FD
:10087600E29F18E29E4002C295C37849E2940918A5
:0A088600E294004004E4F208F222BC
:10091C00C3EF9DFFEE9CAB07FA784EE2FE08E2FFB8
:10092C00AD03AC0212077A8E838F827809E2FE083F
:10093C00E2FF12077AEF2582F582EE3583F5837894
:10094C0003E2FE08E2FFC3EB9FFFEA9EFE784AE259
:10095C00FC08E2FD12077AEF2582FFEE3583FE7864
:10096C0001F208EFF2AC02AD0308ECF208EDF2D3A1
:10097C00EF9409EE6480948040087801E4F20874E6
:10098C0009F2C37801E2648094805004E4F208F226
:07099C007801E2FE08E2FF12
:0109A3002231
:1009A400C3EF9DFFEE9CAB07FA784EE2FE08E2FF30
:1009B400AD03AC0212077A8E838F827809E2FE08B7
:1009C400E2FF12077AEF2582F582EE3583F583780C
:1009D40007E2FE08E2FFC3EB9FFFEA9EFE784AE2CD
:1009E400FC08E2FD12077AEF2582FFEE3583FE78DC
:1009F40005F208EFF2AC02AD0308ECF208EDF2D315
:100A0400EF9409EE6480948040087805E4F2087459
:100A140009F2C37805E2648094805004E4F208F299
:070A24007805E2FE08E2FF85
:010A2B0022A8
:100CAD00783CE2FC08E2FD12091C7837EEF2FC08F4
:080CBD00EFF2FD7F010206B316
:100CC500783EE2FC08E2FD1209A4783AEEF2FC084F
:080CD500EFF2FDE4FF0206B39B
:100CDD003009147840E2FE08E2FF120CAD7844E2D0
:080CED00FE08E2FF120CC52213
:100CF500E4F5C9F5C875CC6675CDFC75CA6675CBC6
:080D0500FCD2CAD2ADD2AF222C
:100D0D005389F0438901758A66758CFCC28DD28C2E
:070D1D00D2A9D2B9D2AF2226
:05000600D288D2A822FF
:05000E00D28AD2AA22F3
:080D59008F993099FDC2992227
:050D6100AE07020D5970
:100389007839E264037074FC120A327F327E0012FB
:100399000C1D7D067C007F04120A367F327E001216
:1003A9000C1D30B605120A30803D7D057C007F03A7
:1003B900120A3620A71420A0FA7D057C007F0212BC
:1003C9000A36120C197839E204F27D057C007F04A3
:1003D900120A3620A0117D057C007F02120A36120E
:1003E9000C197839E204F220A0117D057C007F0206
:1003F900120A36120C197839E204F27839E26404E7
:10040900707BE204F2E4FDFC7F01120A367F0A7E6A
:1004190000120C1DC2A2C2A37D067C007F03120A32
:10042900367F2C7E01120C1D120A307F5E7E01126E
:100439000C1D7D067C007F04120A367FFA7E0012AD
:100449000C1D120A307F5E7E01120C1D7D067C0098
:100459007F04120A367FFA7E00120C1D120A307FC1
:10046900FA7E00120C1D7D067C007F03120A367F7E
:10047900FA7E00120C1DD2A3D2A2120A307839E2F8
:10048900640570307D05FC7F01120A3630B6257887
:1004990039E204F2C2A3120A307F907E01120C1DC8
:1004A900120C5AD2A3E4FDFC7F01120A367F0A7EA0
:1004B90000120C1D7839E26406700EFDFC7F0112F2
:0A04C9000A367F0A7E00120C1D2285
:1005C80020A01E7839E2FF64036016EF60137D05F2
:1005D8007C007F02120A367F2C7E01120C1D120A43
:1005E8003020B4547839E26402704DE204F2120A01
:1005F800307F197E00120C1DC2A4C2A37D067C00A8
:100608007F03120A36120C19D2A3D2A4120A307F21
:10061800907E01120C1DC2A2C2A37D067C007F043D
:10062800120A367FD27E00120C1DD2A3D2A2120A61
:10063800307F587E02120C1D20B55F7839E26401C4
:100648007058E204F2120A30120C19C2A2C2A37D39
:10065800067C007F04120A36120C19E4FDFC7F01A7
:10066800120A367F0A7E00120C1D120A2C7F907E19
:1006780001120C1DC2A4C2A37D067C007F03120ACE
:1006880036120C19E4FDFC7F01120A367F0A7E003F
:0B069800120C1DD2A3D2A4120A3022C3
:100AB300120D0D120CF512000612000E120016D2C2
:100AC300A4D2A3D2A2E4FDFC7F03120A367FF47EF4
:100AD30001120C1D7839E27032E204F2C2A2C2A301
:100AE3007D067C007F03120A36120C19120A2C7F32
:100AF300C27E01120C1DC2A4C2A37D067C007F042A
:100B0300120A36120C19D2A4120A2E1203891205E4
:030B1300C880C1D6
:03002B000204D3F9
:1004D300C0E0C0F0C083C082C0D075D000C000C0EF
:1004E30001C002C003C004C005C006C007C2CF7864
:1004F30043E22401F218E23400F27847E22401F2E5
:1005030018E23400F2D37843E2946418E294004092
:100513006D7835E2FE08E2FF783CEEF2FE08EFF27A
:10052300FF7833E2FD08E2783ECDF208EDF278354C
:10053300E4F208F27833F208F2785374FFF20874A5
:100543000DF2087424F208EEF208EFF27BFE7A0053
:10055300790B12008A785374FFF208740DF2087451
:100563002DF2783EE2FF08E27856CFF208EFF27BF5
:10057300FE7A00791B12008A7842E4F208F2D378FB
:1005830047E294C218E2940140207BFE7A00790B83
:100593007D017F01120BEE7BFE7A00791B7D017FCB
:1005A30002120BEE7846E4F208F2D007D006D0052B
:1005B300D004D003D002D001D000D0D0D082D083D9
:0505C300D0F0D0E03291
:03000B00020BC223
:100BC200C0E0C0D075D000C000C004C005C006C0DF
:100BD20007758A66758CFC300A031207F6D007D0B7
:0C0BE20006D005D004D000D0D0D0E03206
:03000300020C7775
:100C7700C0E0C0D075D000C0007836E22401F21879
:0B0C8700E23400F2D000D0D0D0E03208
:03001300020C924A
:100C9200C0E0C0D075D000C0007834E22401F21860
:0B0CA200E23400F2D000D0D0D0E032ED
:0300000002089063
:0C089000787FE4F6D8FD7581210208D7BE
:10074D00BB010CE58229F582E5833AF583E0225061
:10075D0006E92582F8E622BBFE06E92582F8E222AB
:0D076D00E58229F582E5833AF583E49322C5
:10077A00EF8DF0A4A8F0CF8CF0A428CE8DF0A42E93
:02078A00FE224D
:10002E00E5082453F8E20508227850300702785389
:10003E00E475F0011207B702078C2000EB7F2ED279
:10004E00008018EF540F2490D43440D4FF30040BAA
:10005E00EF24BFB41A0050032461FFE509600215B6
:10006E0009050CE50C7002050B30070D7850E47590
:10007E00F0011207B7EF0207A5020D617403D20754
:10008E008003E4C207F50878501207C7E4F509F5B6
:10009E000BF50CE50960077F2012006980F5750AE3
:1000AE00FFC201C200C202C203C205C206C20812CA
:1000BE000037FF700D3007057F0012007AAF0CAECF
:1000CE000B22B4255FC2D5C204120037FF24D0B470
:1000DE000A00501A75F00A780930D50508B6FF01E6
:1000EE0006C6A426F620D5047002D20380D924CFEA
:1000FE00B41A00EF5004C2E5D204020279D2018094
:10010E00C6D20080C0D20280BCD2D580BAD20580C1
:10011E00B47F201200692002077401B5090040F176
:10012E0012002EFF1200690200A1D208D20680959D
:10013E0012002EFB12002EFA12002EF94A4B7006F8
:10014E00794A7A037BFF20022EE509602A7E008E13
:10015E008275830012074D60060EEE650A70F0C2BE
:10016E00D5EBC0E0EAC0E0E9C0E0EE1202C0D0E09C
:10017E00F9D0E0FAD0E0FB12078CFF60AAEBC0E0EA
:10018E00EAC0E0E9C0E0120069D0E02401F9D0E055
:10019E003400FAD0E0FBE50A0460DCD50AD980878A
:1001AE007BFF7A0279BCD202809C7910800279089A
:1001BE00C206C2088008D2D5790A8004790AC2D54F
:1001CE00E50A047002F50AE4FAFDFEFF12002EFCA9
:1001DE007B0820011312002EFD7B1030000A120046
:1001EE002EFE12002EFF7B20EC3382D592D55013BB
:1001FE00C3E43000069FFFE49EFEE42001039DFD54
:10020E00E49CFCE4CBF8C201EC700CCFCECDCCE874
:10021E0024F8F870F38017C3EF33FFEE33FEED339F
:10022E00FDEC33FCEB33FB994002FB0FD8E9EB30CE
:10023E000105F8D0E0C448B201C0E00AEC4D4E4FC3
:10024E0078207B0070C2EAB50A0040BCC0E0120202
:10025E00C2D0F0D0E0200104C4C0E0C4B201C0F0AE
:10026E00120052D0F0D5F0EB0200A11207D0013EE1
:10027E005301B858010F4C010B4201BC4F01C4444D
:10028E0001C44901244301CA5501AE4601AE4501E0
:01029E00AEB1
:10029F0047036A5001132D01172E013A2B011B231F
:1002AF0001382003532A00D348000001323F3F3F5B
:1002BF0000790AA2D5200314300509B910020404ED
:1002CF00B9080104A2D52006025001042002689249
:1002DF0002B509005034C0E07F203003197F30A2EF
:1002EF000272067205500F120319C202C206C2052E
:1002FF00C2087F30800F300503E9C0E0120069307B
:10030F000503D0E0F9D0E0B509CC3005177F30B93F
:10031F00100C1200697F583004077F788003B908EA
:10032F00031200693002057F2D0200697F2020082B
:10033F00F87F2B2006F322920280CF286E756C6C0B
:10034F002900D20112002E3001F8C201780930D5F0
:10035F000108F60200D32D5043495812002E2403F2
:10036F00B405004001E49003659312005A743A12E9
:0A037F00005AD2037509040201B808
:10089C00020AB3E493A3F8E493A34003F68001F2B5
:1008AC0008DFF48029E493A3F85407240CC8C3335D
:1008BC00C4540F4420C8834004F456800146F6DF2C
:1008CC00E4800B0102040810204080900B8EE47E23
:1008DC00019360BCA3FF543F30E509541FFEE49321
:1008EC00A360010ECF54C025E060A840B8E493A3E8
:1008FC00FAE493A3F8E493A3C8C582C8CAC583CA13
:10090C00F0A3C8C582C8CAC583CADFE9DEE780BECA
:010BC1000033
:10078C00BB010689828A83E0225002E722BBFE026B
:09079C00E32289828A83E493229E
:1007A500BB010689828A83F0225002F722BBFE0133
:0207B500F3222D
:1007B700FAE2FB0808E2F925F0F218E2CA3AF22257
:0907C700EBF208EAF208E9F22263
:1007D000D083D082F8E4937012740193700DA3A3B8
:1007E00093F8740193F5828883E4737402936860CC
:0607F000EFA3A3A380DFCC
:00000001FF
