:101004004C3D25302E3266722F7300523D25302E12
:061014003266722F73002A
:100F82008246000082440000844800000000844C35
:0C0F9200000000008250000082520000AD
:06101A00C2918F80D2A5F7
:081020007F027EEFDEFEDFFC23
:0110280022A5
:0A000600C29012101AC2A5021020C9
:100F1B00E2FC08E2FDCFCDCFCECCCE1205607C003B
:090F2B007D0A120560ED2430FF7F
:0A0F3400D29012101AC2A50210207C
:050F3E00EAF208EBF2ED
:100F4300AE07EEFB7A0064017004ED148009EB64D4
:0E0F5300024A7009ED243F4480FF120006227E
:100016007F381200067F0C1200067F061200067F4C
:0400260001020006CD
:0A102900AC03120F43AF04020F34B2
:0A0EF000786DEBF208EAF208E9F26F
:100EFA00120F43E4FD786DE2FB08E2FA08E2F98D8D
:100F0A008275830012050FFF6006120F340D80E50B
:010F1A0022B4
:0A0E7E00EF24FFFDEE34FFFC7F0AB5
:0D0E88007800EEF208EFF208ECF208EDF24F
:100E95007F017E00E4FBEBFDD37803E29D7480F5D2
:100EA500F018E2648095F0400D7800E2FC08E2FD60
:060EB50012054E0B80E067
:010EBB002214
:020F6100780610
:100F6300120F3E08E2FAEAFF7E00D39400748094E5
:0E0F730080400B120E7E7806120F1B1A80E8CB
:010F8100224D
:100D4300120F43780BE2FC08E2FD08E2FEEC3340AD
:100D5300127F2B120F34780B0808E2FF08E2781099
:100D6300CF80187F2D120F34780BE2FC08E2FD08C8
:100D7300E2FE08E2FF1205B57810EEF208EFF27812
:100D83000FE2FAEAFF7E00D3940074809480400B54
:0B0D9300120E7E7810120F1B1A80E871
:010D9E002232
:020DF200781473
:100DF400120F3E08E2FAEAD3940074809480403AD9
:100E0400EA24FFFDE434FFFC7F107E00120E887894
:100E140014E2FC08E2FDCFCDCFCECCCE120560EFBC
:100E2400540FFEC3940A74809480EE5004243080DE
:0A0E3400022437FF120F341A80BCAD
:010E3E002291
:020E3F00781920
:100E4100120F3E08E2FAEAFF7E00D3940074809408
:100E5100804029EF24FFFDEE34FFFC7F02120E8853
:100E61007819E2FC08E2FDCFCDCFCECCCE120560E1
:0C0E7100EF54012430FF120F341A80CA25
:010E7D002252
:100D9F00786EECF208EDF2786DEFF26403701E08D6
:100DAF00E2FE08E2FFC3E49FFDE49EFC7F01120B0D
:100DBF0083786EE2FC08E2FDE4FF120B83786DE2AC
:100DCF006404701E08E2FC08E2FD7F01120B8378B9
:100DDF006EE2FE08E2FFC3E49FFDE49EFCE4FF1217
:030DEF000B832251
:100B8300AB05AA04A907E964017048D3EB9400EA12
:100B930064809480400A783CEAF208EBF2E480092E
:100BA300EB4A700B783CF208F208F208F28024C397
:100BB300EA64809480501CE4783CF208F27CFF7D68
:100BC300FFAF03AE0212054EAA06AB07783EEAF268
:100BD30008EBF2E97043D3EB9400EA64809480401D
:100BE3000A7840EAF208EBF2E48009EB4A700A78EB
:100BF30040F208F208F208F222C3EA6480948050BB
:100C030018E47840F208F27CFF7DFFAF03AE0212D6
:0A0C1300054E7842EEF208EFF222DF
:100C1D007855E22401F218E23400F2783CE2FE0845
:100C2D00E2FF7854E2FC08E2FDC39FEC9E5004D233
:100C3D00928009C3ED9FEC9E4002C292783EE2FE87
:100C4D0008E2FFC3ED9FEC9E5004D293800CC37855
:100C5D0055E29F18E29E4002C2937840E2FE08E200
:100C6D00FF7854E2FC08E2FDC39FEC9E5004D29441
:100C7D008009C3ED9FEC9E4002C2947842E2FE08CB
:100C8D00E2FFC3ED9FEC9E5004D295800CC37855C6
:100C9D00E29F18E29E4002C2957855E264137002FD
:0A0CAD0018E270057854F208F222F4
:100FD500E4F5C9F5C875CCD275CDFF75CAD275CB08
:080FE500FFD2CAD2ADD2AF2247
:100FED0053877F75985053890F438920758BFD75F5
:070FFD008DFDC2ABD28E2274
:05103B00D288D2A822BA
:05104000D28AD2AA22B1
:081033008F993099FDC299224A
:05104500AE07021033AC
:100EBC00120FD512103B121040120FED1200167DBE
:100ECC00057C007F03120D9F7BFE7A00791C7D014F
:100EDC007F01120EF07BFE7A00792C7D017F0212CD
:040EEC000EF080E4A0
:03002B00020A7C4A
:100A7C00C0E0C0F0C083C082C0D075D000C000C040
:100A8C0001C002C003C004C005C006C007C2CF78B5
:100A9C0051E22401F218E23400F27853E22401F21C
:100AAC0018E23400F2D318E294D018E29407400410
:100ABC00E4F208F2D37853E2941018E2942750032E
:100ACC00020B657846E2FC08E2FDE41201397BCDAD
:100ADC007ACC79CC783D12002E78481205C3784434
:100AEC00E2FC08E2FDE41201397BCD7ACC79CC78BA
:100AFC003D12002E784C1205C3785974FFF208741D
:100B0C0010F2087404F27848E2FC08E2FD08E2FEF8
:100B1C0008E2FF785C1205C37BFE7A00791C120692
:100B2C006A785974FFF2087410F208740FF2784C5A
:100B3C00E2FC08E2FD08E2FE08E2FF785C1205C365
:100B4C007BFE7A00792C12066A7846E4F208F27879
:100B5C0044F208F27852F208F2120C1DD007D006BB
:100B6C00D005D004D003D002D001D000D0D0D08298
:070B7C00D083D0F0D0E0327D
:03000300020F9F4A
:100F9F00C0E0C0D075D000C0007847E22401F2183D
:0B0FAF00E23400F2D000D0D0D0E032DD
:03001300020FBA1F
:100FBA00C0E0C0D075D000C0007845E22401F21824
:0B0FCA00E23400F2D000D0D0D0E032C2
:10002E00EC4D6011E8497017ED33EC3304600DE4CC
:10003E00FCFFFEFD22E933E8330470F80201A7123B
:10004E00017258046009E4CC24815006285009023C
:10005E0001B12840030201AEC0E0EB4A7044B98002
:10006E0006D0E0FB02019DEF4E701CBD8008EBFF39
:10007E00EAFEE9FD80EBE98DF0A4FEE5F002011742
:10008E00E9CDF9EAFEEBFFEF89F0A4FCE5F0CE89AD
:10009E00F0A42EFFE435F0CD89F0A42DFEE435F06A
:1000AE008067EF4E7005BD80D780C3EF8BF0A4AC98
:1000BE00F0EE8BF0A42CFCE435F0F8EF8AF0A42CD3
:1000CE00E5F038FCE433CB8DF0A42CFCE5F03BF8E6
:1000DE00EE8AF0A42CFCE5F038F8E433CF89F0A4D6
:1000EE002CFCE5F038CF3400CE89F0A42FFFE5F0DC
:1000FE003EFEE433C98DF0A42EFEE5F039CD8AF034
:10010E00A42FFFE5F03EFEE43DFD33D0E0FB5007AB
:10011E000BBB000F0201B1EC2CFCEF33FFEE33FEF4
:06012E00ED33FD02018922
:1001340075F020800E75F010800575F0087D007E46
:10014400007F003392D530D5031205B5EC3340104F
:10015400EF33FFEE33FEED33FDEC33FCD5F0ED224F
:0E016400E5F0247EA2D513CC92E7CDCEFF228B
:10060E00E5082459F8E20508227856300702785991
:10061E00E475F0011205CF0204F62000EB7F2ED216
:10062E00008018EF540F2490D43440D4FF30040BC4
:10063E00EF24BFB41A0050032461FFE509600215D0
:10064E0009050CE50C7002050B30070D7856E475A4
:10065E00F0011205CFEF02053C0210457403D207DC
:10066E008003E4C207F50878561205DFE4F509F5B4
:10067E000BF50CE50960077F2012064980F5750A17
:10068E00FFC201C200C202C203C205C206C20812E4
:10069E000617FF700D3007057F0012065AAF0CAE1D
:1006AE000B22B4255FC2D5C204120617FF24D0B4A4
:1006BE000A00501A75F00A780930D50508B6FF0100
:1006CE0006C6A426F620D5047002D20380D924CF04
:1006DE00B41A00EF5004C2E5D204020946D20180DA
:1006EE00C6D20080C0D20280BCD2D580BAD20580DC
:1006FE00B47F201206492002077401B5090040F1AB
:10070E0012060EFF120649020681D208D206809505
:10071E0012060EFB12060EFA12060EF94A4B700660
:10072E00793D7A0A7BFF20022EE509602A7E008E33
:10073E008275830012050F60060EEE650A70F0C218
:10074E00D5EBC0E0EAC0E0E9C0E0EE1209A6D0E0C9
:10075E00F9D0E0FAD0E0FB1204F6FF60AAEBC0E09D
:10076E00EAC0E0E9C0E0120649D0E02401F9D0E089
:10077E003400FAD0E0FBE50A0460DCD50AD98087A4
:10078E00D20280A212098960F7E50A7001041201F3
:10079E00BCA90A600DE50A600914F50A120A30EFC9
:1007AE0060F3EA30E702F404C3995077EAF4250ABD
:1007BE000430E701E404F50A800D12098960C1EAEC
:1007CE00050A250A1201BCEA786CF230E701E4252D
:1007DE000A04D50A04200501141209A6E4C0E01289
:1007EE000A30786CE2601320E70714F212063180AB
:1007FE002204F2D0E014C0E07F00120631E50A6058
:10080E0007120628150A800B300503120628D0E0C1
:10081E00020681D0E00480C512098960A0E50A04B1
:10082E001201BC786CEAF2E50A200502600104248C
:0C083E00041209A674FF04C0E0120A3086
:10084A00120631E50A2005026003120628D0E0B537
:10085A000AE87F4512063B786CE27F2B30E7047F7B
:10086A002DF404C0E0120649D0E075F00A84C0F005
:10087A00120632D0E012063202068179108002791D
:10088A0008C206C2088008D2D5790A8004790AC249
:10089A00D5E50A047002F50AE4FAFDFEFF12060E17
:1008AA00FC7B0820011312060EFD7B1030000A1291
:1008BA00060EFE12060EFF7B20EC3382D592D5502F
:1008CA0013C3E43000069FFFE49EFEE42001039D6B
:1008DA00FDE49CFCE4CBF8C201EC700CCFCECDCC8D
:1008EA00E824F8F870F38017C3EF33FFEE33FEED18
:1008FA0033FDEC33FCEB33FB994002FB0FD8E9EBF9
:10090A00300105F8D0E0C448B201C0E00AEC4D4E0F
:10091A004F78207B0070C2EAB50A0040BCC0E012E2
:10092A0009A8D0F0D0E0200104C4C0E0C4B201C0DC
:10093A00F0120632D0F0D5F0EB0206811205E80774
:10094A001E5308855806EF4C06EB4208894F08915A
:10095A004408914907044308975507C8460826459D
:10096A000792470A5D5006F32D06F72E071A2B0643
:10097A00FB230718200A462A06B34800000712E597
:10098A000AB4FF03750A0612060EFC12060EFD12C1
:10099A00060EFE12060EFF78650201EB790AA2D551
:1009AA00200314300509B910020404B9080104A28D
:1009BA00D52006025001042002689202B5090050AF
:1009CA0034C0E07F203003197F30A202720672051C
:1009DA00500F1209FFC202C206C205C2087F308048
:1009EA000F300503E9C0E0120649300503D0E0F9EB
:1009FA00D0E0B509CC3005177F30B9100C12064982
:100A0A007F583004077F788003B9080312064930FB
:100A1A0002057F2D0206497F202008F87F2B200639
:100A2A00F322920280CF7F00B4070050052465F8B4
:100A3A00E2FF22286E756C6C2900D20112060E3074
:100A4A0001F8C201780930D50108F60206B32D5023
:100A5A0043495812060E2403B405004001E4900AE3
:100A6A00589312063A743A12063AD20375090402E6
:020A7A000885ED
:10017200E9D2E7C933E833F892D5EDD2E7CD33ECD3
:0701820033FC5002B2D5224C
:10018900EC30E7100FBF000C0EBE00080DBD0004D7
:100199000BEB6014A2D5EB13FCED92E7FD2274FF83
:1001A900FCFDFEFF22E480F8A2D574FF13FC7D80DC
:0301B900E480EFF0
:1001BC00F920E72824F950037907E4F42402FB180A
:1001CC00DBFDE224FB5014E9600DE4F218E204F2CA
:0F01DC00B40A08E4F2D9F57401F20A22C2D5225E
:1001EB00ED33EC3392D5FA602AB4FF33EDC2E77BE3
:1001FB00FF60067A027910E4227A02791920D5047D
:10020B007A027914224E614E002B494E46002D493D
:10021B004E4600E47A08F208DAFC7B00740722E809
:10022B00C0E0ECC0E0EDC0E0EEC0E0EFC0E0EA758E
:10023B00F010A4CAABF075F04DA42BFBE435F0FC29
:10024B00EA2410FAEB34C5FBEC34D9FCEDC2E7FF22
:10025B0075F056A4F42411C5F0F434C58FF0A42A1C
:10026B00E5F03BE43CF220E7141204B6D0E0FFD0FB
:10027B00E0FED0E0FDD0E0FC1203E98014F40412A0
:10028B0004B6D0E0FFD0E0FED0E0FDD0E0FC1200E1
:10029B002ED0E0F8E2FAEDD2E7CD33EC332482FB3B
:1002AB00E4C3CF33CFCE33CECD33CD33DBF37B07AC
:1002BB0075F00A846004F2081B0AE5F0F2088FF06F
:1002CB00740AA4FFACF08EF0740AA42CFEACF050B0
:1002DB00010C8DF0740AA42CFDE435F0F208DBDE82
:0302EB0074072273
:1002EE000201A7E86480F8E933E83360110460F096
:1002FE00ED33EC337009E8FCE9FDEAFEEBFF220476
:10030E0060DED3EB9FEA9EE99DE8C2E78CF0C2F770
:10031E0095F0400CE8CCF8E9CDF9EACEFAEBCFFB3C
:10032E0012017285D0F05804700320D5B3E8047022
:10033E00075002B2D50201B192D5EC0460F7E4CCBD
:10034E00C0E0C398F8603B94186008400DD0E0FB05
:10035E00020189E4FBFAC9FC8028E830E406E4C90E
:10036E00FBE4CAFCE830E305E4C9CACBFCE8540759
:10037E006010F8C3E913F9EA13FAEB13FBEC13FC64
:10038E00D8F130F52FC3E49CFCEF9BFFEE9AFEED07
:10039E0099FDD0E0FBEF4E4D4C701222DB030201B3
:1003AE00AEEC2CFCEF33FFEE33FEED33FDED30E71C
:1003BE00EB020189EF2BFFEE3AFEED39FDD0E0FBAB
:1003CE0050130BBB00030201B1ED13FDEE13FEEF54
:0803DE0013FFEC13FC0201897E
:1003E6000201B1EC5D046005E8590470030201A73F
:1003F600120172580460F6EC4860F2EC7004FDFEDF
:10040600FF22C860DB2481C85009C39860025006E9
:100416000201AE9850CAF582E9294B4A7005AB82B3
:1004260002019D75F0007C1A7880C3EF9BEE9AED71
:1004360099400DC3EF9BFFEE9AFEED99FDE842F061
:10044600DC23ACF0D0E0FFD0E0FED0E0FDAB8220B4
:10045600E7101BEB60BAEC2CFCEF33FFEE33FEED3E
:1004660033FD020189E803F830E705C0F075F000B6
:10047600EF2FFFEE33FEED33FD40B830E7C280AA22
:100486003F8000004120000042C80000447A00007E
:10049600461C400047C35000497424004B18968000
:1004A6004CBEBC205A0E1BCA6753C21C749DC5AEF7
:1004B600FB60065407601C23231204E4EB543860E7
:1004C600091204D01204DF12002EECF8EDF9EEFA50
:1004D600EFCB22EB1204DF80F1543803241C900486
:1004E60086FE93FC0EEE93FD0EEE930ECE93FF2248
:03000000020CB738
:0C0CB700787FE4F6D8FD758121020CFE68
:1004F600BB010689828A83E0225002E722BBFE0204
:09050600E32289828A83E4932236
:10050F00BB010CE58229F582E5833AF583E02250A1
:10051F0006E92582F8E622BBFE06E92582F8E222EB
:0D052F00E58229F582E5833AF583E4932205
:10053C00BB010689828A83F0225002F722BBFE019E
:02054C00F32298
:10054E00EF8DF0A4A8F0CF8CF0A428CE8DF0A42EC1
:02055E00FE227B
:10056000BC000BBE0029EF8DF084FFADF022E4CC7F
:10057000F875F008EF2FFFEE33FEEC33FCEE9DEC48
:10058000984005FCEE9DFE0FD5F0E9E4CEFD22ED8E
:10059000F8F5F0EE8420D21CFEADF075F008EF2FD8
:1005A000FFED33FD4007985006D5F0F222C398FDC9
:0505B0000FD5F0EA2266
:0E05B500C3E49FFFE49EFEE49DFDE49CFC2257
:0C05C300ECF208EDF208EEF208EFF22274
:1005CF00FAE2FB0808E2F925F0F218E2CA3AF22241
:0905DF00EBF208EAF208E9F2224D
:1005E800D083D082F8E4937012740193700DA3A3A2
:1005F80093F8740193F5828883E4737402936860B6
:06060800EFA3A3A380DFB5
:100CC300020EBCE493A3F8E493A34003F68001F27D
:100CD30008DFF48029E493A3F85407240CC8C33332
:100CE300C4540F4420C8834004F456800146F6DF01
:100CF300E4800B0102040810204080900F82E47E00
:100D0300019360BCA3FF543F30E509541FFEE493F5
:100D1300A360010ECF54C025E060A840B8E493A3BC
:100D2300FAE493A3F8E493A3C8C582C8CAC583CAE7
:100D3300F0A3C8C582C8CAC583CADFE9DEE780BE9F
:010F9E000052
:00000001FF
