:10115C004C3D25302E31662C523D25302E3166000B
:1010A800C18982280063822E0063840C3F8000007F
:1010B800843600000000843200000000821A00001C
:1010C8008218000084200000000084240000000032
:0810D800822A0000822C0000B6
:100FAD007852ECF208EDF27851EFF2640170170807
:100FBD00E2FC08E2FD7F01120DED7852E2FC08E241
:100FCD00FDE4FF120DED7851E26402701508E2FEAA
:100FDD0008E2FFC3E49FFDE49EFC7F01120DED12BC
:100FED000DDD7851E26403701E08E2FE08E2FFC3D6
:100FFD00E49FFDE49EFC7F01120DED7852E2FC08AA
:10100D00E2FDE4FF120DED7851E26404700E08E28A
:0D101D00FC08E2FD7F01120DED120DDD2239
:100DDD007852E2FE08E2FFC3E49FFDE49EFCE4FFCF
:100DED00AB05AA04A907E964017048D3EB9400EAA6
:100DFD0064809480400A7810EAF208EBF2E48009EE
:100E0D00EB4A700B7810F208F208F208F28024C356
:100E1D00EA64809480501CE47810F208F27CFF7D27
:100E2D00FFAF03AE021205FEAA06AB077812EAF277
:100E3D0008EBF2E97043D3EB9400EA6480948040B0
:100E4D000A7814EAF208EBF2E48009EB4A700A78AA
:100E5D0014F208F208F208F222C3EA64809480507A
:100E6D0018E47814F208F27CFF7DFFAF03AE021296
:0A0E7D0005FE7816EEF208EFF222EF
:100E87007831E22401F218E23400F27810E2FE0829
:100E9700E2FF7830E2FC08E2FDC39FEC9E5004D2EB
:100EA700928009C3ED9FEC9E4002C2927812E2FE47
:100EB70008E2FFC3ED9FEC9E5004D293800CC378E9
:100EC70031E29F18E29E4002C2937814E2FE08E2E4
:100ED700FF7830E2FC08E2FDC39FEC9E5004D294F9
:100EE7008009C3ED9FEC9E4002C2947816E2FE088B
:100EF700E2FFC3ED9FEC9E5004D295800CC378317E
:100F0700E29F18E29E4002C295C37831E2946318CB
:0A0F1700E294004004E4F208F22224
:050C1E00783A12061EE9
:100C2300783EE2FB08E2F908E2FA08E2CBF8C000FA
:100C3300783AE2FC08E2FD08E2FE08E2FFD0001287
:100C430000311202E37842EEF208EFF2FDAC06EC5B
:100C53001202AA7836E2FB08E2F908E2FA08E2CBCC
:100C6300F8120126C004C005C006C0077842E2FCA2
:100C730008E2FDEC1202AA780CE2FB08E2F908E2B2
:100C8300FA08E2CBF8120126D003D002D001D0003B
:100C9300120035C004C005C006C0077802E2FE0892
:100CA300E2FFC37843E29FFD18E29EFC1202AA789A
:100CB30032E2FB08E2F908E2FA08E2CBF812012675
:100CC300D003D002D001D0001200351202E3780025
:100CD300EEF208EFF27842E2FD08E27802CDF20884
:100CE300EDF2D3EF9463EE6480948040087800E4DF
:100CF300F2087463F2C37800E2648094805004E4E1
:0A0D0300F208F27800E2FE08E2FFB9
:010D0D0022C3
:050AF000783A12061E19
:100AF500783EE2FB08E2F908E2FA08E2CBF8C0002A
:100B0500783AE2FC08E2FD08E2FE08E2FFD00012B6
:100B15000031784212061E7842E2FC08E2FD08E246
:100B2500FE08E2FF7836E2FB08E2F908E2FA08E29D
:100B3500CBF8120126C004C005C006C0077842E202
:100B4500FC08E2FD08E2FE08E2FF780CE2FB08E2A1
:100B5500F908E2FA08E2CBF8120126D003D002D058
:100B650001D000120035C004C005C006C0077808D2
:100B7500E2FB08E2F908E2FA08E2CBF8C0007842A5
:100B8500E2FC08E2FD08E2FE08E2FFD000120031B7
:100B95007832E2FB08E2F908E2FA08E2CBF8120142
:100BA50026D003D002D001D00012003578041206F9
:100BB5001E7842E2FC08E2FD08E2FE08E2FF780842
:100BC50012061EE4FFFE7DC67C427804E2FB08E2C5
:100BD500F908E2FA08E2CBF812022C600B4009781A
:100BE5000412062A42C60000E4FFFEFDFC7804E27A
:100BF500FB08E2F908E2FA08E2CBF812022C5009E8
:100C0500780412062A000000007804E2FC08E2FDE0
:090C150008E2FE08E2FF0202E31E
:10102A0030093BAD07AC06EC1202AAC004C005C0E9
:10103A0006C0077820E2FC08E2FD08E2FE08E2FFAB
:10104A00783E12061ED007D006D005D004120C1E18
:0F105A00781CEEF2FC08EFF2FD7F01120DED2283
:1010690030093BAD07AC06EC1202AAC004C005C0AA
:1010790006C0077824E2FC08E2FD08E2FE08E2FF68
:10108900783E12061ED007D006D005D004120AF009
:0F109900781EEEF2FC08EFF2FDE4FF120DED22DF
:100016007828E2FE08E2FF12102A782EE2FE08E2B5
:04002600FF0210695C
:10111700E4F5C9F5C875CCF775CDFF75CAF775CB7A
:08112700FFD2CAD2ADD2AF2203
:10112F0053877F75985053890F438920758BFD75B1
:07113F008DFDC2ABD28E2230
:05000E00D288D2A822F7
:05116C00D28AD2AA2284
:080006008F993099FDC2992287
:05117100AE07020006BC
:1011460012111712000E12116C12112FE4FDFC7F02
:0611560003120FAD80FE44
:03002B00020D0EB5
:100D0E00C0E0C0F0C083C082C0D075D000C000C0AB
:100D1E0001C002C003C004C005C006C007C2CF7820
:100D2E002BE22401F218E23400F2782DE22401F2D3
:100D3E0018E23400F2D318E294E818E2940340610A
:100D4E00781AE2FC08E2FDE41202AA782012061ECE
:100D5E007818E2FC08E2FDE41202AA782412061EBC
:100D6E00120016781AE4F208F27818F208F27BFFF5
:100D7E007A11795C7820E2FC08E2FD08E2FE08E2D6
:100D8E00FF783D12061E7824E2FC08E2FD08E2FE22
:100D9E0008E2FF784112061E1206E4782AE4F208F1
:100DAE00F2D3782DE2948818E294134004E4F2080A
:100DBE00F2120E87D007D006D005D004D003D00291
:0F0DCE00D001D000D0D0D082D083D0F0D0E0328E
:030003000210E107
:1010E100C0E0C0D075D000C000781BE22401F21826
:0B10F100E23400F2D000D0D0D0E0329A
:030013000210FCDC
:1010FC00C0E0C0D075D000C0007819E22401F2180D
:0B110C00E23400F2D000D0D0D0E0327E
:10002E0002034FE86480F8E933E83360110460F0AE
:10003E00ED33EC337009E8FCE9FDEAFEEBFF220438
:10004E0060DED3EB9FEA9EE99DE8C2E78CF0C2F733
:10005E0095F0400CE8CCF8E9CDF9EACEFAEBCFFBFF
:10006E0012031A85D0F05804700320D5B3E804703B
:10007E00075002B2D502035992D5EC0460F7E4CCD6
:10008E00C0E0C398F8603B94186008400DD0E0FBC8
:10009E00020331E4FBFAC9FC8028E830E406E4C927
:1000AE00FBE4CAFCE830E305E4C9CACBFCE854071C
:1000BE006010F8C3E913F9EA13FAEB13FBEC13FC27
:1000CE00D8F130F52FC3E49CFCEF9BFFEE9AFEEDCA
:1000DE0099FDD0E0FBEF4E4D4C701222DB03020374
:1000EE0056EC2CFCEF33FFEE33FEED33FDED30E737
:1000FE00EB020331EF2BFFEE3AFEED39FDD0E0FBC4
:10010E0050130BBB0003020359ED13FDEE13FEEF6C
:08011E0013FFEC13FC02033196
:10012600EC4D6011E8497017ED33EC3304600DE4D3
:10013600FCFFFEFD22E933E8330470F802034F1298
:10014600031A58046009E4CC248150062850090299
:100156000359284003020356C0E0EB4A7044B980B5
:1001660006D0E0FB020345EF4E701CBD8008EBFF96
:10017600EAFEE9FD80EBE98DF0A4FEE5F002020F50
:10018600E9CDF9EAFEEBFFEF89F0A4FCE5F0CE89B4
:10019600F0A42EFFE435F0CD89F0A42DFEE435F071
:1001A6008067EF4E7005BD80D780C3EF8BF0A4AC9F
:1001B600F0EE8BF0A42CFCE435F0F8EF8AF0A42CDA
:1001C600E5F038FCE433CB8DF0A42CFCE5F03BF8ED
:1001D600EE8AF0A42CFCE5F038F8E433CF89F0A4DD
:1001E6002CFCE5F038CF3400CE89F0A42FFFE5F0E3
:1001F6003EFEE433C98DF0A42EFEE5F039CD8AF03B
:10020600A42FFFE5F03EFEE43DFD33D0E0FB5007B2
:100216000BBB000F020359EC2CFCEF33FFEE33FE51
:06022600ED33FD0203317F
:10022C0074F8CC6480CCC86480C8F58204604FC379
:10023C00EB9FF5F0EA9E42F0E99D42F0E89C45F018
:10024C00603C501DE5825FFFE582D313CB5BCBF4A2
:10025C002B5582FB50280ABA002409B900200880CB
:10026C001DE5825BFBE582D313CF5FCFF4C3132F65
:10027C005582FF50090EBE00050DBD00010CC3EBED
:10028C009FF5F0EA9E42F0E99D42F0E89C45F06053
:09029C0007CC4820E701B3EC2275
:1002A50075F020800E75F010800575F0087D007ED4
:1002B500007F003392D530D503120610EC33401081
:1002C500EF33FFEE33FEED33FDEC33FCD5F0ED22DD
:0E02D500E5F0247EA2D513CC92E7CDCEFF2219
:1002E300EDD2E7CD33EC3392D524814006E4FFFE13
:1002F300FDFC22FCE4CFCECDCC24E0501174FF8072
:10030300EDC3CC13CCCD13CDCE13CECF13CF04700E
:07031300F030D5DE020610F8
:10068200E508243DF8E2050822783A300702783D71
:10069200E475F0011206430205A62000EB7F2ED27C
:1006A200008018EF540F2490D43440D4FF30040B50
:1006B200EF24BFB41A0050032461FFE5096002155C
:1006C20009050CE50C7002050B30070D783AE4754C
:1006D200F001120643EF0205EC0211717403D20716
:1006E2008003E4C207F508783A120653E4F509F5E7
:1006F2000BF50CE50960077F201206BD80F5750A2F
:10070200FFC201C200C202C203C205C206C208126F
:10071200068BFF700D3007057F001206CEAF0CAEC0
:100722000B22B4255FC2D5C20412068BFF24D0B4BB
:100732000A00501A75F00A780930D50508B6FF018B
:1007420006C6A426F620D5047002D20380D924CF8F
:10075200B41A00EF5004C2E5D2040209BAD20180F1
:10076200C6D20080C0D20280BCD2D580BAD2058067
:10077200B47F201206BD2002077401B5090040F1C2
:10078200120682FF1206BD0206F5D208D206809535
:10079200120682FB120682FA120682F94A4B700690
:1007A20079B17A0A7BFF20022EE509602A7E008E4B
:1007B200827583001205BF60060EEE650A70F0C2F4
:1007C200D5EBC0E0EAC0E0E9C0E0EE120A1AD0E0E0
:1007D200F9D0E0FAD0E0FB1205A6FF60AAEBC0E078
:1007E200EAC0E0E9C0E01206BDD0E02401F9D0E0A1
:1007F2003400FAD0E0FBE50A0460DCD50AD9808730
:10080200D20280A21209FD60F7E50A700104120308
:1008120064A90A600DE50A600914F50A120AA4EF38
:1008220060F3EA30E702F404C3995077EAF4250A48
:100832000430E701E404F50A800D1209FD60C1EA03
:10084200050A250A120364EA7850F230E701E4252A
:100852000A04D50A0420050114120A1AE4C0E0129F
:100862000AA47850E2601320E70714F21206A5806A
:100872002204F2D0E014C0E07F001206A5E50A606F
:100882000712069C150A800B30050312069CD0E065
:100892000206F5D0E00480C51209FD60A0E50A0455
:1008A2001203647850EAF2E50A200502600104248A
:0C08B20004120A1A74FF04C0E0120AA429
:1008BE001206A5E50A200502600312069CD0E0B5DB
:1008CE000AE87F451206AF7850E27F2B30E7047FAF
:1008DE002DF404C0E01206BDD0E075F00A84C0F01D
:1008EE001206A6D0E01206A60206F579108002794D
:1008FE0008C206C2088008D2D5790A8004790AC2D5
:10090E00D5E50A047002F50AE4FAFDFEFF1206822E
:10091E00FC7B08200113120682FD7B1030000A12A8
:10092E000682FE120682FF7B20EC3382D592D550D2
:10093E0013C3E43000069FFFE49EFEE42001039DF6
:10094E00FDE49CFCE4CBF8C201EC700CCFCECDCC18
:10095E00E824F8F870F38017C3EF33FFEE33FEEDA3
:10096E0033FDEC33FCEB33FB994002FB0FD8E9EB84
:10097E00300105F8D0E0C448B201C0E00AEC4D4E9B
:10098E004F78207B0070C2EAB50A0040BCC0E0126E
:10099E000A1CD0F0D0E0200104C4C0E0C4B201C0F3
:1009AE00F01206A6D0F0D5F0EB0206F512065C07A3
:1009BE00925308F95807634C075F4208FD4F09052B
:1009CE0044090549077843090B55083C46089A45E2
:1009DE000806470AD15007672D076B2E078E2B0787
:1009EE006F23078C200ABA2A07274800000786E5DE
:1009FE000AB4FF03750A06120682FC120682FD1265
:100A0E000682FE120682FF7849020393790AA2D566
:100A1E00200314300509B910020404B9080104A218
:100A2E00D52006025001042002689202B50900503A
:100A3E0034C0E07F203003197F30A20272067205A7
:100A4E00500F120A73C202C206C205C2087F30805E
:100A5E000F300503E9C0E01206BD300503D0E0F902
:100A6E00D0E0B509CC3005177F30B9100C1206BD99
:100A7E007F583004077F788003B908031206BD3013
:100A8E0002057F2D0206BD7F202008F87F2B200651
:100A9E00F322920280CF7F00B4070050052449F85C
:100AAE00E2FF22286E756C6C2900D201120682308C
:100ABE0001F8C201780930D50108F60207272D503A
:100ACE004349581206822403B405004001E4900AFB
:100ADE00CC931206AE743A1206AED2037509040216
:020AEE0008F905
:10031A00E9D2E7C933E833F892D5EDD2E7CD33EC29
:07032A0033FC5002B2D522A2
:10033100EC30E7100FBF000C0EBE00080DBD00042D
:100341000BEB6014A2D5EB13FCED92E7FD2274FFD9
:10035100FCFDFEFF22E480F8A2D574FF13FC7D8032
:03036100E480EF46
:10036400F920E72824F950037907E4F42402FB1860
:10037400DBFDE224FB5014E9600DE4F218E204F220
:0F038400B40A08E4F2D9F57401F20A22C2D522B4
:10039300ED33EC3392D5FA602AB4FF33EDC2E77B39
:1003A300FF60067A0379B8E4227A0379C120D50481
:1003B3007A0379BC224E614E002B494E46002D49EB
:1003C3004E4600E47A08F208DAFC7B00740722E860
:1003D300C0E0ECC0E0EDC0E0EEC0E0EFC0E0EA75E5
:1003E300F010A4CAABF075F04DA42BFBE435F0FC80
:1003F300EA2410FAEB34C5FBEC34D9FCEDC2E7FF79
:1004030075F056A4F42411C5F0F434C58FF0A42A72
:10041300E5F03BE43CF220E714120566D0E0FFD0A0
:10042300E0FED0E0FDD0E0FC1204998014F4041245
:100433000566D0E0FFD0E0FED0E0FDD0E0FC120185
:1004430026D0E0F8E2FAEDD2E7CD33EC332482FB99
:10045300E4C3CF33CFCE33CECD33CD33DBF37B0702
:1004630075F00A846004F2081B0AE5F0F2088FF0C5
:10047300740AA4FFACF08EF0740AA42CFEACF05006
:10048300010C8DF0740AA42CFDE435F0F208DBDED8
:03049300740722C9
:10049600020359EC5D046005E85904700302034F3A
:1004A60012031A580460F6EC4860F2EC7004FDFE84
:1004B600FF22C860DB2481C85009C3986002500639
:1004C6000203569850CAF582E9294B4A7005AB8259
:1004D60002034575F0007C1A7880C3EF9BEE9AED17
:1004E60099400DC3EF9BFFEE9AFEED99FDE842F0B1
:1004F600DC23ACF0D0E0FFD0E0FED0E0FDAB822004
:10050600E7101BEB60BAEC2CFCEF33FFEE33FEED8D
:1005160033FD020331E803F830E705C0F075F0005B
:10052600EF2FFFEE33FEED33FD40B830E7C280AA71
:100536003F8000004120000042C80000447A0000CD
:10054600461C400047C35000497424004B1896804F
:100556004CBEBC205A0E1BCA6753C21C749DC5AE46
:10056600FB60065407601C2323120594EB54386085
:100576000912058012058F120126ECF8EDF9EEFA44
:10058600EFCB22EB12058F80F1543803241C900523
:1005960036FE93FC0EEE93FD0EEE930ECE93FF22E7
:03000000020F21CB
:0C0F2100787FE4F6D8FD758121020F688E
:1005A600BB010689828A83E0225002E722BBFE0253
:0905B600E32289828A83E4932286
:1005BF00BB010CE58229F582E5833AF583E02250F1
:1005CF0006E92582F8E622BBFE06E92582F8E2223B
:0D05DF00E58229F582E5833AF583E4932255
:1005EC00BB010689828A83F0225002F722BBFE01EE
:0205FC00F322E8
:1005FE00EF8DF0A4A8F0CF8CF0A428CE8DF0A42E11
:02060E00FE22CA
:0E061000C3E49FFFE49EFEE49DFDE49CFC22FB
:0C061E00ECF208EDF208EEF208EFF22218
:10062A00D083D082E493F208740193F2087402939F
:09063A00F208740393F2740473D6
:10064300FAE2FB0808E2F925F0F218E2CA3AF222CC
:09065300EBF208EAF208E9F222D8
:10065C00D083D082F8E4937012740193700DA3A32D
:10066C0093F8740193F5828883E473740293686041
:06067C00EFA3A3A380DF41
:100F2D00021146E493A3F8E493A34003F68001F283
:100F3D0008DFF48029E493A3F85407240CC8C333C5
:100F4D00C4540F4420C8834004F456800146F6DF94
:100F5D00E4800B01020408102040809010A8E47E6C
:100F6D00019360BCA3FF543F30E509541FFEE49389
:100F7D00A360010ECF54C025E060A840B8E493A350
:100F8D00FAE493A3F8E493A3C8C582C8CAC583CA7B
:100F9D00F0A3C8C582C8CAC583CADFE9DEE780BE33
:0110E000000F
:00000001FF
