:100DEC004C3D00636D0064697374616E63653D25F1
:040DFC00660D0A0076
:100E0000021700000116000111000119010412006F
:030E1000000000DF
:060E1400C2918F80D2A5FF
:080E1A007F027EEFDEFEDFFC2B
:010E220022AD
:0A0E2F00C290120E14C2A5020E1AA2
:100D6B00CFCDCFCECCCE1205977C007D0A12059746
:040D7B00ED2430FF34
:0A0D7F00D290120E14C2A5020E1A43
:100D8900AE07EEFB7A0064017004ED148009EB6490
:0E0D9900024A7009ED243F4480FF120E2F2203
:100DD8007F38120E2F7F0C120E2F7F06120E2F7FD8
:040DE80001020E2FC7
:0A0E3900AC03120D89AF04020D7F17
:060D48008B3E8A3F89404A
:100D4E00120D89E4FDAB3EAA3FA9408D827583004A
:0C0D5E00120546FF6006120D7F0D80E9B3
:010D6A002266
:0A0D1700EF24FFFDEE34FFFC7F0A1D
:080D21008E438F448C458D4682
:100D29007F017E00E4FBEBC39546E5456480F874DA
:0E0D39008098500AAC43AD441205850B80E84B
:010D47002289
:040003008A408B4163
:10000700120D89AA42EAFF7E00D39400748094807F
:0F001700400D120D17AC40AD41120D6B1A80E673
:0100260022B7
:100C4400120D89AE0CAD0BAC0AEC33400D7F2B12A8
:100C54000D7F850C0F850D1080147F2D120D7FAF35
:100C64000DAE0CAD0BAC0A1205EC8E0F8F10AA0E54
:100C7400EAFF7E00D3940074809480400D120D1717
:0A0C8400AC0FAD10120D6B1A80E6E4
:010C8E002243
:040C8F008A1C8B1D13
:100C9300120D89AA1EEAD39400748094804037EA27
:100CA30024FFFDE434FFFC7F107E00120D21AC1CF9
:100CB300AD1DCFCDCFCECCCE120597EF540FFEC3D3
:100CC300940A74809480EE5004243080022437FF09
:060CD300120D7F1A80BF24
:010CD90022F8
:040CDA008A498B4A6E
:100CDE00120D89AA4BEAFF7E00D394007480948093
:100CEE004026EF24FFFDEE34FFFC7F02120D21ACF7
:100CFE0049AD4ACFCDCFCECCCE120597EF540124BD
:080D0E0030FF120D7F1A80CDA9
:010D160022BA
:0C0E23005389F0438901E4F58AF58C2224
:100DC10053877F75985053890F438920758BFD7523
:070DD1008DFDC2ABD28E22A2
:100DA700E4F5C9F5C875CC6675CDFC75CA6675CB13
:0A0DB700FCD2CAC2BDD2AFD2AD22F9
:040E55007F02DFFE3B
:010E59002276
:0A0E4300C2A1D2A1120E55C2A122D5
:100B9500C2AF120E4330A0FDD28C20A0FDC28CAF97
:100BA5008CEFFEAD8A7C00E42DFDEC3EFCE41201E9
:100BB500397B487AE1798A783F12002E8F158E1499
:100BC5008D138C127B967A43798B783C12002E8F8D
:100BD500158E148D138C12308D0EC28D7515007502
:100BE50014C0751379751244E4F58CF58AD2AF22D9
:080E4D008F993099FDC2992232
:050E5A00AE07020E4D81
:100BF500120E23120DA7120DD8C3E5169464748046
:100C0500948040F5120B957BFF7A0D79EC7D017F81
:100C150001120D48AF15AE14AD13AC12120172AB33
:100C250007AA067542037D037F011200037BFF7A45
:0F0C35000D79EF7D067F01120D48E4F51680BAA8
:03002B00020B2B9A
:100B2B00C0E0C0F0C083C082C0D075D000C000C090
:100B3B0001C002C003C004C005C006C007C2CF0578
:100B4B0018E5187002051705160511C394F4E5177F
:100B5B009401401B7517007518007BFF7A0D79F215
:100B6B00851528851427851326851225120692D004
:100B7B0007D006D005D004D003D002D001D000D0CE
:0A0B8B00D0D082D083D0F0D0E03249
:10002E00EC4D6011E8497017ED33EC3304600DE4CC
:10003E00FCFFFEFD22E933E8330470F80201DE1204
:10004E0001A958046009E4CC248150062850090205
:10005E0001E82840030201E5C0E0EB4A7044B98094
:10006E0006D0E0FB0201D4EF4E701CBD8008EBFF02
:10007E00EAFEE9FD80EBE98DF0A4FEE5F002011742
:10008E00E9CDF9EAFEEBFFEF89F0A4FCE5F0CE89AD
:10009E00F0A42EFFE435F0CD89F0A42DFEE435F06A
:1000AE008067EF4E7005BD80D780C3EF8BF0A4AC98
:1000BE00F0EE8BF0A42CFCE435F0F8EF8AF0A42CD3
:1000CE00E5F038FCE433CB8DF0A42CFCE5F03BF8E6
:1000DE00EE8AF0A42CFCE5F038F8E433CF89F0A4D6
:1000EE002CFCE5F038CF3400CE89F0A42FFFE5F0DC
:1000FE003EFEE433C98DF0A42EFEE5F039CD8AF034
:10010E00A42FFFE5F03EFEE43DFD33D0E0FB5007AB
:10011E000BBB000F0201E8EC2CFCEF33FFEE33FEBD
:06012E00ED33FD0201C0EB
:1001340075F020800E75F010800575F0087D007E46
:10014400007F003392D530D5031205ECEC33401018
:10015400EF33FFEE33FEED33FDEC33FCD5F0ED224F
:0E016400E5F0247EA2D513CC92E7CDCEFF228B
:10017200EDD2E7CD33EC3392D524814006E4FFFE85
:10018200FDFC22FCE4CFCECDCC24E0501174FF80E4
:10019200EDC3CC13CCCD13CDCE13CECF13CF047081
:0701A200F030D5DE0205EC90
:10063000E5392425F8E605392278223007027825A5
:10064000E475F0011205FA02052D2000EB7F2ED291
:10065000008018EF540F2490D43440D4FF30040BA2
:10066000EF24BFB41A0050032461FFE53A6002157D
:100670003A053DE53D7002053C30070D7822E475F2
:10068000F0011205FAEF020573020E5A7403D20745
:100690008003E4C207F5398B228A238924E4F53AE2
:1006A000F53CF53DE53A60077F2012066B80F57555
:1006B0003BFFC201C200C202C203C205C206C20899
:1006C000120639FF700D3007057F0012067CAF3D22
:1006D000AE3C22B4255FC2D5C204120639FF24D035
:1006E000B40A00501A75F00A783A30D50508B6FFFA
:1006F0000106C6A426F620D5047002D20380D924B0
:10070000CFB41A00EF5004C2E5D204020969D20145
:1007100080C6D20080C0D20280BCD2D580BAD205B9
:1007200080B47F2012066B2002077401B53A0040A6
:10073000F1120630FF12066B0206A4D208D2068020
:1007400095120630FB120630FA120630F94A4B7049
:100750000679607A0A7BFF20022EE53A602A7E0045
:100760008E8275830012054660060EEE653B70F0C2
:10077000C2D5EBC0E0EAC0E0E9C0E0EE1209C9D0A2
:10078000E0F9D0E0FAD0E0FB12052DFF60AAEBC043
:10079000E0EAC0E0E9C0E012066BD0E02401F9D045
:1007A000E03400FAD0E0FBE53B0460DCD53BD980C7
:1007B00087D20280A21209AC60F7E53B70010412F7
:1007C00001F3A93B600DE53B600914F53B120A53A8
:1007D000EF60F3EA30E702F404C3995077EAF425B6
:1007E0003B0430E701E404F53B800D1209AC60C125
:1007F000EA053B253B1201F3EA7838F630E701E4DD
:10080000253B04D53B04200501141209C9E4C0E0CE
:10081000120A537838E6601320E70714F6120653DD
:10082000802204F6D0E014C0E07F00120653E53BBE
:10083000600712064A153B800B30050312064AD0AA
:10084000E00206A4D0E00480C51209AC60A0E53B3C
:10085000041201F37838EAF6E53B20050260010452
:0508600024041209C987
:1008650074FF04C0E0120A53120653E53B2005024B
:10087500600312064AD0E0B53BE87F4512065D7875
:1008850038E67F2B30E7047F2DF404C0E012066BB9
:10089500D0E075F00A84C0F0120654D0E012065478
:1008A5000206A4791080027908C206C2088008D21F
:1008B500D5790A8004790AC2D5E53B047002F53B77
:1008C500E4FAFDFEFF120630FC7B08200113120638
:1008D50030FD7B1030000A120630FE120630FF7B19
:1008E50020EC3382D592D55013C3E43000069FFF28
:1008F500E49EFEE42001039DFDE49CFCE4CBF8C2EC
:1009050001EC700CCFCECDCCE824F8F870F380174D
:10091500C3EF33FFEE33FEED33FDEC33FCEB33FB7E
:10092500994002FB0FD8E9EB300105F8D0E0C44847
:10093500B201C0E00AEC4D4E4F78207B0070C2EA50
:10094500B53B0040BCC0E01209CBD0F0D0E020019F
:1009550004C4C0E0C4B201C0F0120654D0F0D5F012
:10096500EB0206A412060A07415308A85807124CC1
:10097500070E4208AC4F08B44408B449072743089A
:10098500BA5507EB4608494507B5470A805007168B
:100995002D071A2E073D2B071E23073B200A692A20
:1009A50006D64800000735E53BB4FF03753B061244
:1009B5000630FC120630FD120630FE120630FF78B6
:1009C50031020222790AA2D5200314300509B91093
:1009D500020404B9080104A2D5200602500104202E
:1009E50002689202B53A005034C0E07F2030031906
:1009F5007F30A20272067205500F120A22C202C28D
:100A050006C205C2087F30800F300503E9C0E01239
:100A1500066B300503D0E0F9D0E0B53ACC300517C8
:100A25007F30B9100C12066B7F583004077F788031
:100A350003B9080312066B3002057F2D02066B7F92
:100A4500202008F87F2B2006F322920280CF7F001A
:100A5500B4070050052431F8E6FF22286E756C6C4A
:100A65002900D2011206303001F8C201783A30D59A
:100A75000108F60206D62D504349581206302403C4
:100A8500B405004001E4900A7B9312065C743A12A7
:0A0A9500065CD203753A040208A8BB
:1001A900E9D2E7C933E833F892D5EDD2E7CD33EC9C
:0701B90033FC5002B2D52215
:1001C000EC30E7100FBF000C0EBE00080DBD0004A0
:1001D0000BEB6014A2D5EB13FCED92E7FD2274FF4C
:1001E000FCFDFEFF22E480F8A2D574FF13FC7D80A5
:0301F000E480EFB9
:1001F300F920E72824F950037907E4F42402FB18D3
:10020300DBFDE624FB5014E9600DE4F618E604F682
:0F021300B40A08E4F6D9F57401F60A22C2D5221E
:10022200ED33EC3392D5FA602AB4FF33EDC2E77BAB
:10023200FF60067A027947E4227A02795020D504D7
:100242007A02794B224E614E002B494E46002D49CF
:100252004E4600E47A08F608DAFC7B00740722E8CE
:10026200C0E0ECC0E0EDC0E0EEC0E0EFC0E0EA7557
:10027200F010A4CAABF075F04DA42BFBE435F0FCF2
:10028200EA2410FAEB34C5FBEC34D9FCEDC2E7FFEB
:1002920075F056A4F42411C5F0F434C58FF0A42AE5
:1002A200E5F03BE43CF620E7141204EDD0E0FFD089
:1002B200E0FED0E0FDD0E0FC1204208014F4041231
:1002C20004EDD0E0FFD0E0FED0E0FDD0E0FC120073
:1002D2002ED0E0F8E6FAEDD2E7CD33EC332482FB00
:1002E200E4C3CF33CFCE33CECD33CD33DBF37B0775
:1002F20075F00A846004F6081B0AE5F0F6088FF030
:10030200740AA4FFACF08EF0740AA42CFEACF05078
:10031200010C8DF0740AA42CFDE435F0F608DBDE46
:030322007407223B
:100325000201DEE86480F8E933E83360110460F027
:10033500ED33EC337009E8FCE9FDEAFEEBFF22043E
:1003450060DED3EB9FEA9EE99DE8C2E78CF0C2F739
:1003550095F0400CE8CCF8E9CDF9EACEFAEBCFFB05
:100365001201A985D0F05804700320D5B3E80470B4
:10037500075002B2D50201E892D5EC0460F7E4CC4F
:10038500C0E0C398F8603B94186008400DD0E0FBCE
:100395000201C0E4FBFAC9FC8028E830E406E4C9A0
:1003A500FBE4CAFCE830E305E4C9CACBFCE8540722
:1003B5006010F8C3E913F9EA13FAEB13FBEC13FC2D
:1003C500D8F130F52FC3E49CFCEF9BFFEE9AFEEDD0
:1003D50099FDD0E0FBEF4E4D4C701222DB0302017C
:1003E500E5EC2CFCEF33FFEE33FEED33FDED30E7AE
:1003F500EB0201C0EF2BFFEE3AFEED39FDD0E0FB3D
:1004050050130BBB00030201E8ED13FDEE13FEEFE5
:0804150013FFEC13FC0201C00F
:10041D000201E8EC5D046005E8590470030201DE99
:10042D001201A9580460F6EC4860F2EC7004FDFE70
:10043D00FF22C860DB2481C85009C39860025006B2
:10044D000201E59850CAF582E9294B4A7005AB8245
:10045D000201D475F0007C1A7880C3EF9BEE9AED03
:10046D0099400DC3EF9BFFEE9AFEED99FDE842F02A
:10047D00DC23ACF0D0E0FFD0E0FED0E0FDAB82207D
:10048D00E7101BEB60BAEC2CFCEF33FFEE33FEED07
:10049D0033FD0201C0E803F830E705C0F075F00048
:1004AD00EF2FFFEE33FEED33FD40B830E7C280AAEB
:1004BD003F8000004120000042C80000447A000047
:1004CD00461C400047C35000497424004B189680C9
:1004DD004CBEBC205A0E1BCA6753C21C749DC5AEC0
:1004ED00FB60065407601C232312051BEB54386078
:1004FD000912050712051612002EECF8EDF9EEFAA9
:10050D00EFCB22EB12051680F1543803241C900416
:10051D00BDFE93FC0EEE93FD0EEE930ECE93FF22D9
:03000000020A9F52
:0C0A9F00787FE4F6D8FD75814B020AE672
:10052D00BB010689828A83E0225002E722BBFE02CC
:09053D00E32289828A83E49322FF
:10054600BB010CE58229F582E5833AF583E022506A
:1005560006E92582F8E622BBFE06E92582F8E222B4
:0D056600E58229F582E5833AF583E49322CE
:10057300BB010689828A83F0225002F722BBFE0167
:02058300F32261
:10058500EF8DF0A4A8F0CF8CF0A428CE8DF0A42E8A
:02059500FE2244
:10059700BC000BBE0029EF8DF084FFADF022E4CC48
:1005A700F875F008EF2FFFEE33FEEC33FCEE9DEC11
:1005B700984005FCEE9DFE0FD5F0E9E4CEFD22ED57
:1005C700F8F5F0EE8420D21CFEADF075F008EF2FA1
:1005D700FFED33FD4007985006D5F0F222C398FD92
:0505E7000FD5F0EA222F
:0E05EC00C3E49FFFE49EFEE49DFDE49CFC2220
:1005FA00FAE6FB0808E6F925F0F618E6CA3AF62202
:10060A00D083D082F8E4937012740193700DA3A37F
:10061A0093F8740193F5828883E473740293686093
:06062A00EFA3A3A380DF93
:100AAB00020BF5E493A3F8E493A34003F68001F261
:100ABB0008DFF48029E493A3F85407240CC8C3334C
:100ACB00C4540F4420C8834004F456800146F6DF1B
:100ADB00E4800B0102040810204080900E00E47E9D
:100AEB00019360BCA3FF543F30E509541FFEE49310
:100AFB00A360010ECF54C025E060A840B8E493A3D7
:100B0B00FAE493A3F8E493A3C8C582C8CAC583CA01
:100B1B00F0A3C8C582C8CAC583CADFE9DEE780BEB9
:010E130000DE
:00000001FF
